:100000002AC1000059C1000057C1000055C10000BD
:1000100053C1000051C100004FC100004DC100009C
:100020004BC1000049C1000047C1000045C10000AC
:1000300043C1000041C100003FC100003DC10000BC
:100040003BC1000039C1000037C1000035C10000CC
:1000500033C1000031C100002FC100000C94761E96
:100060002BC100000C94561D0C948C1D25C1000062
:1000700023C1000021C100001FC100001DC10000FC
:100080001BC1000019C1000017C1000015C100000C
:1000900013C1000011C100000FC100000DC100001C
:1000A0000BC1000009C1000007C1000005C100002C
:1000B00003C1000001C10000FFC00000FDC000003E
:1000C000FBC00000F9C000000C94010FF5C0000057
:1000D000F3C00000F1C00000EFC00000EDC0000060
:1000E000EBC00000991F9E1FA31FAD1FB71F30203C
:1000F000C11FC91FD11FDB1FE51FEF1FFE1F0820F7
:10010000302012201C20262051205420432047203C
:100110004D208B2058205C20622066206A207020B1
:10012000742078208B207E208220862005A84CCD4C
:10013000B2D44EB93836A9020C50B9918688083C21
:10014000A6AAAA2ABE000000803F00000A0B0209EE
:100150000C0D0E0807030401000000000000000061
:10016000000000000000000000000000000000008F
:10017000000000000000121110000000000000004C
:10018000000000000000000000000000000000006F
:100190000102102020080810204010204080020199
:1001A000020108040201010204081020408080407E
:1001B000201008040201800402018040201008047D
:1001C000020108040201010204081020408001021B
:1001D00004081020408005050505070508080808E3
:1001E000020202020A0A08080404040401010101CF
:1001F00001010101030303030303030304070707CA
:100200000C0C0C0C0C0C0C0C02020202060606066E
:10021000060606060B0B0B0B0B0B0B0B000022004C
:10022000250028002B002E003100340002010000C0
:10023000050108010B0100002100240027002A000D
:100240002D003000330001010000040107010A0104
:10025000201BBE1DE31B11241FBECFEFD1E2DEBF6A
:10026000CDBF00E00CBF18E0A0E0B2E0E4E8F3E5A9
:1002700000E00BBF02C007900D92A837B107D9F775
:100280002FE0A8E7B8E001C01D92A23FB207E1F756
:1002900012E0C4E5D2E000E006C022970109FE01A9
:1002A0000BBF0E94C021C035D10780E00807A9F725
:1002B0000E94691E0C94B129A3CEFC01DB0182814E
:1002C0008C93838111968C931197848112968C93D1
:1002D0001297858113968C931397868114968C932D
:1002E0001497878115968C931597808516968C9315
:1002F0001697818517968C9388E090E00895FC010D
:10030000DB014C9150E060E070E0428353836483F2
:10031000758311968C911197582B42835383648374
:10032000758312968C911297682B42835383648352
:10033000758313968C911397782B42835383648330
:10034000758314964C91149750E060E070E04683FA
:1003500057836087718715968C911597582B468324
:1003600057836087718716968C911697682B468302
:1003700057836087718717968C91782B46835783B4
:100380006087718788E090E0089580E192E00895A9
:100390008EE192E008956F927F928F929F92AF923A
:1003A000BF92CF92DF92EF92FF920F931F93CF9362
:1003B000DF93FC01DB018C9190E0938382831196A3
:1003C0002C911197922B9383828312964D915D917C
:1003D0006D917C9115975D0186E0A80EB11C8A0194
:1003E0009B010A5F1F4F2F4F3F4F6501CA1ADB0A5F
:1003F000E12CF12CC016D106E206F30640F4E5012B
:10040000F9905E01CE010297EC01F882EECFED018A
:10041000C40FD51F1D82CD01059695838483ED0100
:10042000C40FD51FCE80DF80E884F984465F5F4F1C
:100430003D01640E751E8A01222717FD2095322F7B
:100440000C0D1D1D2E1D3F1D43018A1A9B0AA12C58
:10045000B12C80169106A206B30640F4E30169911F
:100460003E01CE010297EC016883EECFC40ED51E8B
:100470009D012C0D3D1DC9010197EC0118824150D1
:1004800051094A0F5B1F57834683E901088119818F
:100490002A813B81D4E0CD0ED11C3D016C0C7D1C2A
:1004A000A601662757FD6095762F400F511F621FEA
:1004B000731F43018A1A9B0AA12CB12C841695063E
:1004C000A606B70640F4E301F9903E01CE0102977B
:1004D000EC01F882EECF0C0D1D1D9D01200F311F88
:1004E000C9010197EC011882D1E0CD1AD108CA0EDA
:1004F000DB1ED186C086D90111968C911197129678
:100500004C91129750E060E070E0BA015527442703
:10051000582B8C91482B13968C91782B42875387BC
:1005200064877587C8010496DF91CF911F910F9161
:10053000FF90EF90DF90CF90BF90AF909F908F9003
:100540007F906F9008958FE392E0089588E592E0A0
:100550000895AF92BF92CF92DF92EF92FF921F93D6
:10056000CF93DF939C01FB018081D90112968C937C
:1005700081819281A381B4815B01C5E0AC0EB11C85
:10058000AC01BD014B5F5F4F6F4F7F4F6501CE1ACE
:10059000DF0AE12CF12CC416D506E606F70650F466
:1005A000E501D9905E017E01D2E0ED1AF108E70184
:1005B000D882ECCFEF01C80FD91F1C823496E90115
:1005C000FC83EB830596DF91CF911F91FF90EF9015
:1005D000DF90CF90BF90AF90089589E792E00895A3
:1005E0008CE892E0089589E697E008958DEA92E01C
:1005F00008958EEC92E0089587EE92E0089588E0E9
:1006000093E008958EE193E008958FE393E00895D9
:1006100083E593E00895AF92BF92CF92DF92EF927D
:10062000FF921F93CF93DF935C019B01FB018191AC
:100630009191A191B191AC01BD014C5F5F4F6F4FA2
:100640007F4F6F01C21AD30AE12CF12CC416D506D4
:10065000E606F70640F4D1907F0112E0E11AF108B6
:10066000E701D882EECFF901E80FF91F13822D5F61
:100670003F4FF501338322830496DF91CF911F9181
:10068000FF90EF90DF90CF90BF90AF90089584E7F8
:1006900093E0089584E893E00895CF92DF92EF927B
:1006A000FF920F931F93CF93DF938C01EB0188810F
:1006B00090E0A0E0B0E0F80182839383A483B58347
:1006C0002981922B82839383A483B5832A81A22BD1
:1006D00082839383A483B5832B81B22B82839383FC
:1006E000A483B5838C8190E0A0E0B0E086839783FB
:1006F000A087B1872D81922B86839783A087B187AE
:100700002E81A22B86839783A087B1872F81B22B5E
:1007100086839783A087B187488550E060E070E0CA
:1007200042875387648775878985582B428753870B
:10073000648775878A85682B4287538764877587A6
:100740008B85782B42875387648775878C859D8539
:10075000AE85BF859E01205F3F4FAC01BD01405F6C
:100760005F4F6F4F7F4F6901CC1ADD0AE12CF12CEE
:10077000C416D506E606F70650F4F901D1909F019C
:100780007F01F2E0EF1AF108F701D082ECCF9E0171
:10079000280F391FF90117862F96F801D787C687CA
:1007A0004096DF91CF911F910F91FF90EF90DF90D6
:1007B000CF90089585EA93E0089585EB93E008953E
:1007C00086ED93E008958EEE93E008958FE094E037
:1007D00008958EE294E00895DF92EF92FF920F93D6
:1007E0001F93CF93DF937C01EB01DC0112968C9178
:1007F000888319821A821B82D12C04E010E0F70151
:100800008281D816B0F4F70181AD92ADF6E3DF9E98
:10081000800D911D1124DC01ED91FC91BE01600F52
:10082000711F0190F081E02D1995080F191FD394C5
:10083000E6CFC801DF91CF911F910F91FF90EF900C
:10084000DF9008958FE494E008958CE594E0089596
:100850008DE794E008958EE193E0089581E994E0B6
:10086000089584EA94E0089585EC94E0089586EE76
:1008700094E0089587E095E0089589E295E0089571
:100880008AE495E008958CE595E008958E579B4F96
:10089000FC0180810895FC0186A197A108958FE352
:1008A00093E0089583E593E00895AF92BF92CF92CD
:1008B000DF92EF92FF920F931F93CF93DF93EC01A0
:1008C0007B018A81DB018C938B8111968C93EC8167
:1008D000FD81DF010D900020E9F7CD0101976C014A
:1008E000CE1ADF0AC601A0E0B0E0FB018283938349
:1008F000A483B5836C817D81A601C70106960E9401
:10090000DC26EE81FF81DF010D900020E9F7CD01AB
:1009100001975C01AE1ABF0AF701EC0DFD1D8501C0
:1009200020E030E006831783208731879AE0C90EE4
:10093000D11C6E817F81A501C7018C0D9D1D0E9478
:10094000DC26CA0CDB1CE885F985DF010D90002050
:10095000E9F7CD0101975C01AE1ABF0AF701EC0D72
:10096000FD1D850120E030E0008311832283338365
:1009700094E0C90ED11C68857985A501C7018C0D4D
:100980009D1D0E94DC26AC0CBD1C3A852B859C85E8
:100990008D85F701EA0DFB1D3083218392838383CC
:1009A000C5010496DF91CF911F910F91FF90EF90B9
:1009B000DF90CF90BF90AF9008950F931F93CF9388
:1009C000DF93DC01FB0112968C91129780831396C2
:1009D0008D919C911497EC0109900020E9F72197E3
:1009E000C81BD90B8E0120E030E0018312832383E2
:1009F000348313966D917C911497AE01CF010596C7
:100A00000E94DC26CE010596DF91CF911F910F91B8
:100A10000895BF92CF92DF92EF92FF920F931F93B0
:100A2000CF93DF93EC017B018A81DB018C931196DC
:100A30001C92119712961C92129713961C92FB010E
:100A4000379640E024E030E05A81C901049645170A
:100A5000E0F4AF81B88524E0429FA00DB11D1124C0
:100A60006C9111965C91119712963C911297139686
:100A70002C91DF0113976C9311965C9311963C9324
:100A800020839C014F5F3496DFCF4985F701E20F49
:100A9000F31F408311821282138220E03985F7010F
:100AA000E80FF91F04962317B0F4AE85BF8534E034
:100AB000239FA00DB11D11246C9111965C9111978B
:100AC00012964C91129713963C9160835183428306
:100AD00033832F5FE3CF2889208311821282138210
:100AE000B12C2889B21698F54B2D50E0440F551FB4
:100AF000EB89FC89E40FF51F0190F081E02DDF0107
:100B00000D900020E9F79D01215031096901CE1AAD
:100B1000DF0AF701E80FF91F860120E030E00083CB
:100B20001183228333838C010C5F1F4FEB89FC8977
:100B3000E40FF51F60817181A601C701800F911F2D
:100B40000E94DC26C601800F911FB394CACFDF91AB
:100B5000CF911F910F91FF90EF90DF90CF90BF90BA
:100B600008950F931F93CF93DF93DC011296ED91BD
:100B7000FC911397EF0109900020E9F72197CE1B14
:100B8000DF0B8E0120E030E0FB01019311932193F4
:100B9000319312966D917C911397AE01CF010E9413
:100BA000DC26CE010496DF91CF911F910F9108951D
:100BB0000F931F93CF93DF93DC01FB0112968C916F
:100BC0001297808313968C911397818314968C913E
:100BD0001497828315968C911597838316968C9122
:100BE0001697848317968C911797858318968C9106
:100BF0001897868319968C91199787831A968C91EA
:100C00001A9780871B968C911B9781871C968C91D5
:100C10001C9782871D968C911D9783871E968D91B8
:100C20009C911F97EC0109900020E9F72197C81BC0
:100C3000D90B8E0120E030E004871587268737879F
:100C40001E966D917C911F97AE01CF0140960E9438
:100C5000DC26CE014096DF91CF911F910F91089530
:100C60004F925F927F928F929F92AF92BF92CF925C
:100C7000DF92EF92FF920F931F93CF93DF93EC01DC
:100C80008B01DB01FC908A818F1550F4B4E0FB9E50
:100C9000B00111248F8198850E94F82598878F8351
:100CA000FA82F8013796F12C44E050E09E012D5F66
:100CB0003F4F8A81BA016C5F7F4F6B01F81660F578
:100CC000408150E060E070E0742F6627552744278C
:100CD000DF0113978C91482B11968C91582B11960C
:100CE0008C91682B4B835C836D837E83A6016F811F
:100CF000788584E0F89E600D711D1124D9018D90D6
:100D00009D90AD90BC90DB018D929D92AD92BC9276
:100D10001397F3943496CDCFF801E40FF51FF080CC
:100D200089858F1550F484E0F89EB00111248E85DA
:100D30009F850E94F8259F878E879601F98680E01F
:100D4000FE013A969985D801A20FB31FA9014C5F05
:100D50005F4F6A01891748F511969C911197129679
:100D60004C91129750E060E070E0BA01552744279B
:100D7000592B9C91492B13969C91792B4A875B8721
:100D80006C877D879601AE85BF8594E0899FA00D15
:100D9000B11D112440815181628173814D935D9316
:100DA0006D937C9313978F5FCDCFFC9088898F15BF
:100DB00050F46F2D70E0660F771F8B899C890E941D
:100DC000F8259C8B8B8BC601F88A712C2E0151E182
:100DD000450E511C2889721608F044C0F801E80F2E
:100DE000F91FC080D180E280F3800496F801E80FFB
:100DF000F91FAC01662757FD6095762F4C0D5D1DE0
:100E00006E1D7F1D9F01201B310B4901A12CB12CB0
:100E100084169506A606B70638F4B1909F012250B5
:100E20003109D901BC92EECFC80ED91EF801EC0DE4
:100E3000FD1D319710829C0121503109200F311F77
:100E40003A8B298BC6013B892C89E32FF22FE70DC2
:100E5000F11DE70DF11DD2012D913C9131832083CD
:100E60007394B8CFDF91CF911F910F91FF90EF90C6
:100E7000DF90CF90BF90AF909F908F907F905F90CA
:100E80004F900895009711F00E94581E61E08DE088
:100E90000E948C2061E08DE00E94C5206AEF70E026
:100EA00080E090E00E94EF1E60E08DE00E94C5208F
:100EB0006AEF70E080E090E00E94EF1EEBCF0F93AE
:100EC0001F93CF93DF93CDB7DEB72A970FB6F89471
:100ED000DEBF0FBECDBFF8942AE0FC01DE01119603
:100EE00001900D922A95E1F700911B0F10911C0FB4
:100EF0008CE090E00E94741E90931C0F80931B0F57
:100F0000009739F46DE775E08091150F9091160FF9
:100F1000B9DFFC01138612862AE0FE013196DC015E
:100F200001900D922A95E1F72091190F30911A0F37
:100F3000232B29F490931A0F8093190F03C0F80103
:100F4000938782878091170F9091180F0196909345
:100F5000180F8093170F78942A960FB6F894DEBF77
:100F60000FBECDBFDF91CF911F910F9108958F924A
:100F70009F92AF92BF92CF92DF92EF92FF920F9328
:100F80001F93CF93DF93EC01CB01BA018B019C013E
:100F9000B7E13595279517950795BA95D1F711279C
:100FA00022273327011511052105310521F00058AD
:100FB0001C4F2F4F3F4F188219821A826B017C0100
:100FC000B5E0CC0CDD1CEE1CFF1CBA95D1F7CB8232
:100FD0006B017C0143E0F594E794D794C7944A955C
:100FE000D1F7CC826B017C015BE0F594E794D79458
:100FF000C7945A95D1F7CD8268017901E4E0CC0C11
:10100000DD1CEE1CFF1CEA95D1F74B015C01F3E1FE
:10101000B594A79497948794FA95D1F7482D4F707B
:101020004C294E8368017901A4E0F594E794D794A4
:10103000C794AA95D1F720E030E0A9010E944C2284
:1010400087FD02C0CF8203C08C2D80688F8388E02B
:1010500090E0DF91CF911F910F91FF90EF90DF9083
:10106000CF90BF90AF909F908F900895EF92FF9296
:101070000F931F93CF93DF938C01EB01FC0142810F
:10108000538164817581CE0172DF7C01F801468154
:10109000578160857185CE018E0D9F1D68DFE80E3A
:1010A000F91EF8014285538564857585CE018E0D44
:1010B0009F1D5DDFE80EF91EF801468557856089A2
:1010C0007189CE018E0D9F1D52DF8E0D9F1DDF9108
:1010D000CF911F910F91FF90EF900895EF92FF92A3
:1010E0000F931F93CF93DF938C01EB01FC0142819F
:1010F000538164817581CE013ADF7C01F80146811C
:10110000578160857185CE018E0D9F1D30DFE80E01
:10111000F91EF8014285538564857585CE018E0DD3
:101120009F1D25DF8E0D9F1DDF91CF911F910F9188
:10113000FF90EF900895EF92FF920F931F93CF933C
:10114000DF938C017B010296C9DFEC01B701680FC8
:10115000791FC8014096C2DF8C0F9D1FDF91CF9190
:101160001F910F91FF90EF900895EF92FF920F93D0
:101170001F93CF93DF938C017B010296AFDFEC01CD
:10118000B701680F791FC801409670DF8C0F9D1F53
:10119000DF91CF911F910F91FF90EF900895CF9223
:1011A000DF92EF92FF920F931F93CF93DF937C0117
:1011B0006B010296FDDCD7015296ED91FC9153979D
:1011C000EF0109900020E9F72197CE1BDF0BF60114
:1011D000E80FF91F8E0120E030E0008311832283A5
:1011E00033838C010C5F1F4F52966D917C91539706
:1011F000AE01C601800F911F0E94DC26C00FD11FD7
:10120000B6016C0F7D1FC7014496AFDF8C0F9D1F89
:10121000DF91CF911F910F91FF90EF90DF90CF90D2
:101220000895EF92FF920F931F93CF93DF938C015A
:10123000EB01FC014281538164817581CE0197DE0F
:101240007C01F8014681578160857185CE018E0D44
:101250009F1D8DDEE80EF91EF801428553856485D9
:101260007585CE018E0D9F1D82DE8E0D9F1DDF9137
:10127000CF911F910F91FF90EF900895EF92FF9201
:101280000F931F93CF93DF938C017B010296C9DFED
:10129000EC01B701680F791FC8014096E7DE8C0F9B
:1012A0009D1FDF91CF911F910F91FF90EF900895B7
:1012B000CF92DF92EF92FF920F931F93CF93DF9322
:1012C0007C018B010296DADFEC01C12CD12CF701F5
:1012D000EC0DFD1D44A155A166A177A1C8018C0F9D
:1012E0009D1F45DEC80FD91F84E0C80ED11C80E9C0
:1012F000C816D10461F7CE01DF91CF911F910F91F4
:10130000FF90EF90DF90CF900895CF92DF92EF9211
:10131000FF920F931F93CF93DF937C018B01029673
:101320000ADFEC01C12CD12CF701EC0DFD1D40A111
:1013300051A162A173A1C8018C0F9D1F18DEC80FB7
:10134000D91F84E0C80ED11C80E9C816D10461F70A
:10135000CE01DF91CF911F910F91FF90EF90DF9021
:10136000CF900895CF92DF92EF92FF920F931F9349
:10137000CF93DF937C016B0102961ADCD701529662
:10138000ED91FC915397EF0109900020E9F7219727
:10139000CE1BDF0BF601E80FF91F8E0120E030E0D5
:1013A00000831183228333838C010C5F1F4F52967D
:1013B0006D917C915397AE01C601800F911F0E94E1
:1013C000DC26C00FD11FB6016C0F7D1FC7014496EC
:1013D0006FDFC80FD91FB6016C0F7D1FC70188537F
:1013E0009F4F93DF8C0F9D1FDF91CF911F910F9126
:1013F000FF90EF90DF90CF9008950F931F93FC0123
:10140000DB01038102950695077010E020E030E0D3
:101410000D931D932D933C931397448150E060E00E
:1014200070E083E0440F551F661F771F8A95D1F740
:10143000402B512B622B732B4D935D936D937C93BB
:101440001397058110E020E030E09BE0000F111FB2
:10145000221F331F9A95D1F7042B152B262B372BE0
:101460000D931D932D933C93139746814F7050E03D
:1014700060E070E083E1440F551F661F771F8A9577
:10148000D1F7402B512B622B732B4D935D936D93B2
:101490007C931397868182958F7007810F7710E078
:1014A00020E030E094E0000F111F221F331F9A95B7
:1014B000D1F7082B0115110521053105A1F00058C0
:1014C00013402109310997E1000F111F221F331F1B
:1014D0009A95D1F7042B152B262B372B0D931D93A3
:1014E0002D933C9313970781007810E020E030E0C3
:1014F000302F2227112700274D915D916D917C910E
:101500001397402B512B622B732B4D935D936D934F
:101510007C93139788E090E01F910F910895EF92CC
:10152000FF920F931F93CF93DF938C01EB01BC01CC
:101530006E5F7F4FCE0161DF7C01B8016A5F7F4F34
:10154000CE018E0D9F1D59DFE80EF91EB801665FB2
:101550007F4FCE018E0D9F1D50DFE80EF91EB801A2
:10156000625F7F4FCE018E0D9F1D47DF8E0D9F1D49
:10157000DF91CF911F910F91FF90EF900895EF921F
:10158000FF920F931F93CF93DF938C01EB01BC016C
:101590006E5F7F4FCE0131DF7C01B8016A5F7F4F04
:1015A000CE018E0D9F1D29DFE80EF91EB801665F82
:1015B0007F4FCE018E0D9F1D20DF8E0D9F1DDF9171
:1015C000CF911F910F91FF90EF900895EF92FF92AE
:1015D0000F931F93CF93DF938C017B010296CFDF94
:1015E000EC01B701680F791FC8014096C8DF8C0F66
:1015F0009D1FDF91CF911F910F91FF90EF90089564
:101600000F931F93CF93DF93EC018C010A5F1F4F61
:10161000C801DCDFECA1FDA1C801DF91CF911F91D2
:101620000F911994EF92FF920F931F93CF93DF9333
:101630008C017B010296A3DFEC01B701680F791FD3
:10164000C80140966CDF8C0F9D1FDF91CF911F91D9
:101650000F91FF90EF9008958F929F92AF92BF925B
:10166000CF92DF92EF92FF920F931F93CF93DF936E
:101670007C01EB01029611D8FE01E80FF91F0081F1
:101680001181228133816C0144E0C40ED11CDE0142
:10169000AC0DBD1DA601662757FD6095762F400F46
:1016A000511F621F731F4D018C1A9D0AA12CB12C72
:1016B00084169506A606B70630F4BD90CD010297B4
:1016C000FC01B082F0CF0C0D1D1DBE01600F711F1B
:1016D000DB0111971C92F6013197EC0FFD1FD7012A
:1016E0005396FC93EE935297C70144969BDF800F6D
:1016F000911FDF91CF911F910F91FF90EF90DF909D
:10170000CF90BF90AF909F908F900895AF92BF926F
:10171000CF92DF92EF92FF920F931F93CF93DF93BD
:10172000EC017B01FB0110818A81811750F4F6E303
:101730001F9FB001112489AD9AAD0E94F8259AAF80
:1017400089AF1A83B12C04E010E06E0183E0C80E6B
:10175000D11C26E3A22E8A81B816B0F4B701600F1F
:10176000711FC60179DF080F191FA9ADBAADE6E3F5
:10177000BE9EA00DB11D1124F6018A2D01900D927F
:101780008A95E1F7B394E7CFC801DF91CF911F911C
:101790000F91FF90EF90DF90CF90BF90AF900895A2
:1017A000EF92FF920F931F93CF93DF938C01EB0186
:1017B000BC016E5F7F4FCE0120DE7C01B8016A5F05
:1017C0007F4FCE018E0D9F1D18DEE80EF91EB80169
:1017D000665F7F4FCE018E0D9F1D0FDE8E0D9F1D0C
:1017E000DF91CF911F910F91FF90EF900895EF92AD
:1017F000FF920F931F93CF93DF938C017B0102968F
:10180000CFDFEC01B701680F791FC801409687DE72
:101810008C0F9D1FDF91CF911F910F91FF90EF9043
:101820000895CF92DF92EF92FF920F931F93CF9381
:10183000DF936C017B010296DADFEC0100E010E03F
:1018400084E2C80ED11CB601600F711FC7018C0F56
:101850009D1FD3DDC80FD91F0C5F1F4F0039110525
:1018600091F7CE01DF91CF911F910F91FF90EF90F3
:10187000DF90CF900895CF92DF92EF92FF920F9377
:101880001F93CF93DF936C017B0102969FDEEC01E7
:1018900000E010E080E2C80ED11CB601600F711F9D
:1018A000C7018C0F9D1FA9DDC80FD91F0C5F1F4FEB
:1018B0000039110591F7CE01DF91CF911F910F9162
:1018C000FF90EF90DF90CF9008958F929F92AF920C
:1018D000BF92EF92FF920F931F93CF93DF93EC0190
:1018E0007B0102960E944D03F701E80FF91F00816A
:1018F0001181228133810496F701E80FF91FAC01B1
:10190000662757FD6095762F400F511F621F731F8A
:101910004F018E189F08A12CB12C84169506A6069F
:10192000B70628F4B190DF011297BC92F1CF080FEF
:10193000191FB701600F711FFB01319710820197CA
:101940008E0D9F1D9B8B8A8BCE0144966ADF080FFC
:10195000191FB701600F711FCE0188539F4F8BDF96
:10196000800F911FDF91CF911F910F91FF90EF900A
:10197000BF90AF909F908F900895CF93DF93AB016E
:10198000EC01AE81BF81ED91FC9111976C817D815D
:101990000190F081E02DCD01DF91CF911994EF926C
:1019A000FF920F931F93CF93DF93CDB7DEB7DA95F6
:1019B0000FB6F894DEBF0FBECDBFC65FDE4F088105
:1019C0001981CA50D1409E01225F3E4FC45FDE4F55
:1019D00048815981CC50D14060E071E0CE01019640
:1019E0007C010E94E526F801F582E482B8016E5F71
:1019F0007F4FC8010696C1DFD3950FB6F894DEBFBE
:101A00000FBECDBFDF91CF911F910F91FF90EF904F
:101A100008954F925F926F927F928F929F92AF92B2
:101A2000BF92CF92DF92EF92FF92CF93DF93CDB729
:101A3000DEB72A970FB6F894DEBF0FBECDBF5C01AC
:101A4000FC01628D738D848D958D0E94BB227F93E6
:101A50006F93F50166897789808D918D0E94BB22F5
:101A60007F936F93F50162897389848995890E94B8
:101A7000BB227F936F93F501648575858685978575
:101A80000E94BB227F936F93F501608571858285EB
:101A900093850E94BB227F936F93F50164817581CA
:101AA000868197810E94BB227F936F938EEA95E097
:101AB0009F938F938091A5088F938091A4088F9313
:101AC0006EDFF501C28CD38CE48CF58C2BED3FE0FE
:101AD00049E45FE3C701B6010E94E8212B013C0104
:101AE0000E943E2420E030E04EEF52E40E94DB23CF
:101AF0000E94BB227C836B83C301B2010E945022EF
:101B000020E030E04EEF52E40E94DB230E94BB2233
:101B10007A836983CD82DE82EF82F886F501848044
:101B20009580A680B7800FB6F894DEBF0FBECDBFFC
:101B300020E030E040E050E4C501B4010E944C22B6
:101B4000811103C01A86198628C020E030E040E0E9
:101B500050ECC501B4010E944C22811103C081E008
:101B600090E019C020E030E040E050ECC701B60141
:101B70000E944C22811103C083E090E00CC020E061
:101B800030E040E050E4C701B6010E944C228111D0
:101B900008C082E090E09A878987CE0101968FD9AC
:101BA0000FC082EE95E09F938F938091A5088F934D
:101BB0008091A4088F93F3DE0F900F900F900F90F9
:101BC0002A960FB6F894DEBF0FBECDBFDF91CF913E
:101BD000FF90EF90DF90CF90BF90AF909F908F904D
:101BE0007F906F905F904F9008956F927F928F9249
:101BF0009F92AF92BF92CF92DF92EF92FF920F939C
:101C00001F93CF93DF93EC018091190F90911A0FDE
:101C1000892B09F4E7C08091140F8111E3C0F89477
:101C2000E091190FF0911A0F309739F468EF75E0D1
:101C30008091150F9091160F25D900811181628036
:101C40007380C480D580E680F780A084B1848284CC
:101C50009384CF010E94751E90921A0F8092190FE3
:101C60008091170F9091180F01979093180F809300
:101C7000170F81E08093140F7894F501EE0FFF1F8A
:101C8000EA5FFD4F81818F9380818F938AE296E096
:101C90009F938F938091A5088F938091A4088F9331
:101CA0007EDE198308837B826A82CC82DD82EE82AB
:101CB000FF820F900F900F900F900F900F90309128
:101CC000A5082091A40816141704A4F41F930F93D9
:101CD00080E496E09F938F933F932F9360DE6A8119
:101CE0007B818AE00E94761F61E08DE00E94C52022
:101CF00060E01AC088279927801B910B9F938F93D0
:101D000086E596E09F938F933F932F9348DE6A81F9
:101D10007B817195619571098AE00E94761F60E070
:101D20008DE00E94C52061E08CE00E94C5200F90EC
:101D30000F900F900F900F900F903091A508209169
:101D4000A40810161106B4F48B818F938A818F93A7
:101D500080E796E09F938F933F932F9320DE6881D7
:101D6000798189E00E94761F60E08BE00E94C520A7
:101D700061E01BC08A819B819195819591099F9318
:101D80008F9385E896E09F938F933F932F9307DE81
:101D90006881798171956195710989E00E94761F4A
:101DA00061E08BE00E94C52060E088E00E94C520D1
:101DB0000F900F900F900F900F900F9060E970EDC3
:101DC00083E090E0DF91CF911F910F91FF90EF9012
:101DD000DF90CF90BF90AF909F908F907F906F904B
:101DE0000C943421DF91CF911F910F91FF90EF90D0
:101DF000DF90CF90BF90AF909F908F907F906F902B
:101E000008951F920F920FB60F9211240BB60F92E6
:101E10002F933F934F935F936F937F938F939F93F2
:101E2000AF93BF93EF93FF9360E089E00E94C520DA
:101E300060E08AE00E94C5201092140F0E942821C1
:101E4000FF91EF91BF91AF919F918F917F916F9192
:101E50005F914F913F912F910F900BBE0F900FBE4E
:101E60000F901F901895FC0187E198E09183808383
:101E70008FEF97E0938382831482158216821782F4
:101E80001086118612861386148615861686178686
:101E90008BEE96E0918B808B938B828B8BE098E01E
:101EA000958B848B85EC97E0978B868B108E118EAB
:101EB000128E138E148E158E168E178E10A211A2EE
:101EC00012A213A289EB97E095A384A316A217A2EE
:101ED00010A611A612A613A614A615A616A617A636
:101EE00010AA11AA12AA13AA14AA15AA0895CF9388
:101EF000DF93FC018FE598E0918380838FEF97E07B
:101F0000938382831482158216821782108611862B
:101F10001286138614861586168617868BEE96E033
:101F2000918B808B938B828B87E498E0958B848B4D
:101F30008BE398E0978B868B8FE298E0918F808F70
:101F4000128E138E148E158E168E178E10A211A25D
:101F500012A213A214A215A289EB97E097A386A35D
:101F600010A611A612A613A614A615A616A617A6A5
:101F700010AA11AA12AA13AA14AA15AA16AA17AA75
:101F8000DF01D896CF0188539F4F1D921D921D925D
:101F90001D92A817B907C9F783E598E011969C939D
:101FA0008E93EF01C653DF4F81ED97E099838883CD
:101FB000229685EC97E0998388831A821B821C8283
:101FC0001D821E821F82188619861A861B861C8611
:101FD0001D862E96998388831A821B821C821D82FD
:101FE0001E821F82188619861A861B861C861D86ED
:101FF0009096E858FE4F1D921D921D921D92AE17AD
:10200000BF07C9F7DF91CF9108950F931F93CF9327
:10201000DF93EC010C811D81012B51F08C819D819E
:10202000FC01028513850E94751E1D830C83F4CF6D
:102030001B821A821F821E8219821882DF91CF9121
:102040001F910F910895CF93DF93CDB7DEB72897F7
:102050000FB6F894DEBF0FBECDBFFC01718760875D
:10206000118210821382128261E088E00E948C202B
:1020700061E08BE00E948C2061E08CE00E948C206B
:1020800061E08DE00E948C2061E089E00E948C205C
:1020900061E08AE00E948C201C821B821E821D82CD
:1020A00018861F821A82198288E0FE013196A5E106
:1020B000BFE001900D928A95E1F7CE010196A5DF70
:1020C00060E070E089E00E94761F60E070E08AE0E6
:1020D0000E94761F60E08DE00E94C52060E08CE0E9
:1020E0000E94C52060E08BE00E94C52060E088E08F
:1020F0000E94C52060E970ED83E090E00E943421E9
:1021000028960FB6F894DEBF0FBECDBFDF91CF91FA
:102110000895FC0189EE97E09183808385E49FE038
:102120009383828340E051EE60E070E04483558306
:1021300066837783DF01AE57BB4F1C921E968DEAF4
:1021400097E011969C938E9312961C921297189674
:102150001C921E92179719961C9219971F961C9203
:102160001E921E9750961C92509754961C921E9247
:10217000539780E090E0DF01A80FB91FAC5EBB4F22
:102180001D921C92029682339105A9F780E090E09F
:10219000DF01A80FB91FAA5BBB4F1D921C920296CC
:1021A00082339105A9F780E090E0DF01A80FB91F05
:1021B00054961C920196811522E09207B1F780E0B7
:1021C00090E0DF01A80FB91FAC5EBD4F1C920196D5
:1021D000811522E09207A9F70895CF92DF92EF923E
:1021E000FF920F931F93CF93DF93CDB7DEB7609726
:1021F0000FB6F894DEBF0FBECDBF8C010E94C01E8B
:1022000028EE33E040E050E00E948E2169017A011F
:102210009B01AC01F80184859585A685B7858C0D59
:102220009D1DAE1DBF1D89879A87AB87BC8760E463
:1022300072E48FE090E00E946C210089118922896C
:102240003389600F711F821F931F6D877E878F8771
:10225000988BBE01635F7F4FCE0109960E94FB20E1
:1022600088E0FE013996DE01119601900D928A9563
:10227000E1F729813A814B815C816D817E818F817B
:10228000988560960FB6F894DEBF0FBECDBFDF9184
:10229000CF911F910F91FF90EF90DF90CF90089515
:1022A000CF93DF9300D01F921F92CDB7DEB721EA04
:1022B00037E03A8329836B835D834C83DC01ED91A6
:1022C000FC910190F081E02DAE014F5F5F4F67E020
:1022D00070E019950F900F900F900F900F90DF9175
:1022E000CF910895CF92DF92EF92FF920F931F93B9
:1022F000CF93DF93EC017B01643671053CF0FC0168
:10230000EE57FB4F8081882309F462C0DA01ED911A
:10231000FC910190F081E02DBE01655E7D4FCA0108
:1023200019958C016E01BCEECB1ABDEFDB0A2FEFC5
:10233000F60120832EEF31962083319680833196EB
:102340009083890F8095319680833196E082319613
:10235000F08285E090E020E030E0A801495F5F4F27
:102360008417950750F4FE01E80FF91FEC5EFD4F4E
:102370006081260F311D0196F3CF085F1F4F4C0F70
:102380005D1FFA01EC5EFD4F209520830130F2E0E5
:102390001F07B0F47601C7018C199D0980179107BA
:1023A0006CF48A819B81D7016D917D01DC01ED91F7
:1023B000FC910190F081E02D1995EDCFC8010AC084
:1023C0004EE956E063E0CE016BDF8FEF9FEF02C076
:1023D00080E090E0DF91CF911F910F91FF90EF90FF
:1023E000DF90CF9008950F931F93CF93DF93CDB7D6
:1023F000DEB72A970FB6F894DEBF0FBECDBF8C01B3
:1024000089E897E09A8389831B821C821D821E8241
:102410001F82188619861A86D801ED91FC910190C9
:10242000F081E02DAE014F5F5F4F6AE070E0C801C0
:1024300019950E94C01EF801608771878287938773
:102440002A960FB6F894DEBF0FBECDBFDF91CF91B5
:102450001F910F9108954F925F926F927F928F928A
:102460009F92AF92BF92CF92DF92EF92FF920F9323
:102470001F93CF93DF93CDB7DEB72E970FB6F894A7
:10248000DEBF0FBECDBF8C0185E997E09A838983BB
:102490001C821B828BEE96E09E838D8398878F83B0
:1024A0009A8789871B861C861D861E86580182E3B3
:1024B000A80EB11C7801412C52E0552E612C712CD4
:1024C0006701ACEECA1AABEFDA0AD601ED91FC91C6
:1024D0003097B9F1848195819C838B838081918130
:1024E0009E838D8382819381DC01ED91FC91048038
:1024F000F581E02D199598878F83D601ED91FC9198
:1025000082819381DC01ED91FC910680F781E02DC1
:1025100019959A8789874B865C866D867E86F80139
:1025200080819181F601A081B18118966D917C9195
:102530001997DC01ED91FC91AE014F5F5F4FC8012F
:102540001995B2E0EB0EF11CEA14FB0409F0B8CFC8
:102550007801412C42E0542E612C712C6701EAEB8A
:10256000CE1AEBEFDE0AF601A081B1811097E1F1FE
:1025700012968D919C9113979C838B8314968D91C9
:102580009C9115979E838D83ED91FC91119704800A
:10259000F581E02DCD01199598878F83D6018D9116
:1025A0009C91DC01ED91FC910680F781E02D19955D
:1025B0009A8789874B865C866D867E86D801ED91E9
:1025C000FC9180809180F60180819181DC01ED9108
:1025D000FC910280F381E02D1995AE014F5F5F4FB2
:1025E000BC01C801F4011995F2E0EF0EF11CEA14E8
:1025F000FB0409F0B3CFF801EE57FB4F81E0808375
:102600002E960FB6F894DEBF0FBECDBFDF91CF91EF
:102610001F910F91FF90EF90DF90CF90BF90AF9000
:102620009F908F907F906F905F904F9008958F92C2
:102630009F92AF92BF92CF92DF92EF92FF920F9351
:102640001F93CF93DF93CDB7DEB72A970FB6F894D9
:10265000DEBF0FBECDBF8C015B0189E897E09A8396
:1026600089831B821C821D821E821F821886198606
:102670001A860E94C01E6B017C01F801808591853D
:10268000A285B385C81AD90AEA0AFB0AB501CE01A8
:1026900001960E947F0168EE862E63E0962EA12CA3
:1026A000B12CC701B601A50194010E948E216901D8
:1026B0007A019B01AC018B819C81AD81BE818C0D27
:1026C0009D1DAE1DBF1D8B839C83AD83BE8360E4C7
:1026D00072E48FE090E00E946C21CF80D884E9847E
:1026E000FA84C60ED71EE81EF91ECF82D886E98668
:1026F000FA860E94C01ECB80DC80ED80FE80F1E077
:10270000CF1AD108E108F108A50194010E948E2199
:1027100049015A019B01AC01C818D908EA08FB0815
:10272000F801C486D586E686F786CF80D884E9840A
:10273000FA84F6E3DF1AF5E6EF0AF4ECFF0A60E448
:1027400072E48FE090E00E946C21C61AD70AE80A72
:10275000F90AF801C08AD18AE28AF38AB801605F77
:102760007F4FC8010C960E94FB200E94C01EF801FA
:10277000E957FB4F60837183828393832A960FB658
:10278000F894DEBF0FBECDBFDF91CF911F910F91A7
:10279000FF90EF90DF90CF90BF90AF909F908F9081
:1027A00008952F923F924F925F926F927F928F92F5
:1027B0009F92AF92BF92CF92DF92EF92FF920F93D0
:1027C0001F93CF93DF93CDB7DEB760970FB6F89422
:1027D000DEBF0FBECDBF4C010E94C01E6B017C014D
:1027E000940129573B4F3E832D83F90180819181CC
:1027F000A281B381A7019601281B390B4A0B5B0B01
:10280000DA01C901893F9A42A105B10510F0359757
:102810001082A40148585B4F588B4F87DA018D9185
:102820009C91892B79F0F401E557FB4F80819181D0
:10283000A281B3818C159D05AE05BF0518F4FA0180
:10284000118210823401F0E86F1AFBEF7F0A9401C5
:1028500024583B4F3A832983A4014E575B4F588736
:102860004F832C5E3F4F3C872B87435F5F4F5E87D4
:102870004D87840106581B4F1601270154E1250E90
:10288000311C411C511C540184E1A80EB11C94015F
:1028900022583B4F3C832B83A40145575B4F5A87FB
:1028A0004987D40112968D919C911397DC01ED918B
:1028B000FC910680F781E02D19959C0197FD29C1B7
:1028C000F30180819181820F931F91838083AF8573
:1028D000B8894D915C9147305105E1F4EB81FC8161
:1028E00080819181AC014F5F5F4F51834083F40140
:1028F000E80FF91F248BD8018D919C9111970197B6
:102900008D939C93892B09F0BECF28E030E0EF85B2
:10291000F88986C04115510519F52F3F310569F435
:1029200081E090E0AF85B8898D939C93E985FA8525
:102930002082318242825382B4CF0E94C01E6C1921
:102940007D098E099F09663071058105910508F49E
:102950009ACFF401EE57FB4F10828EEF9FEFFEC02F
:102960004130510591F42E3F310519F482E090E099
:102970002EC0EF85F88911821082AF81B8858C91C5
:10298000811181CFC4012FDD8CCF4230510589F4F4
:10299000F80131832083AB81BC811D921C9283E0BE
:1029A00090E0EF85F88991838083D3012D933C9348
:1029B00078CF4330510581F4322F2227F8018081EE
:1029C0009181820F931F9183808384E090E0AF8593
:1029D000B8898D939C9365CF4430510599F460E09C
:1029E00071E00E947B218F3F910539F485E090E0F2
:1029F000EF85F8899183808354CFAF85B8891D9284
:102A00001C924FCF4530510571F4E981FA81318331
:102A1000208386E090E0AF85B8898D939C93F30185
:102A2000318320833ECF46305105D1F4322F222707
:102A3000A981BA818D919C911197820F931F8D93DB
:102A40009C9327E030E0EF85F88931832083D8011B
:102A50008D919C91892B09F016CF28E030E0E0CFD2
:102A60004830510509F00FCFAF85B8891D921C92EF
:102A700060E071E00E947B218F3F910509F003CF58
:102A8000A981BA81ED91FC913097A1F4C401ABDC2E
:102A9000C401E1DCF401ED57FB4FC082D182E28238
:102AA000F382ED81FE81C082D182E282F3828FEFD8
:102AB0009FEF54C0EA30F10521F4B501C401B7DD40
:102AC000F0CEE630F10551F4B5018B859C850E946E
:102AD000300681E0AD85BE858C93E3CEEB30F10509
:102AE00021F4EF81F8851082DCCEE154FE4FEE0F29
:102AF000FF1FE80DF91D80819181009709F4C3CE75
:102B0000DC01ED91FC910190F081E02DB50119956A
:102B1000C8CEF401EE57FB4F80818823E9F0840191
:102B20000D571B4FF80180819181A281B381A701CC
:102B30009601281B390B4A0B5B0BDA01C901853C56
:102B40009940A105B10540F0C4014DDCD801CD92FA
:102B5000DD92ED92FC92139780E090E060960FB6C4
:102B6000F894DEBF0FBECDBFDF91CF911F910F91C3
:102B7000FF90EF90DF90CF90BF90AF909F908F909D
:102B80007F906F905F904F903F902F900895CF93DC
:102B9000DF934091730A5091740A6091750A7091A5
:102BA000760A26E08091710A9091720A1FD71092DE
:102BB000E80E1092E70E1092EA0E1092E90E1092B3
:102BC000EE0E1092ED0E1092EC0E1092EB0E8FE6C0
:102BD0009AE003DB209384083093850840938608AD
:102BE00050938708609388087093890880938A08B7
:102BF00090938B088FE69AE0F0DA20937C0830936C
:102C00007D0840937E0850937F08609380087093FE
:102C10008108809382089093830880E190E00E946D
:102C2000741EFC018FE69AE0918380838DED97E01E
:102C3000938382838BEE96E09583848387ED96E081
:102C400097838683CF0102969187808717861686A1
:102C5000A3E8BEE080E090E02D913D91232B99F414
:102C6000DC01AA0FBB1FAD57B14F9F012A5F3F4F39
:102C70002D933C9383589F4F938782878FE69AE0EA
:102C80009587848704C001968931910529F7F093CF
:102C9000A508E093A408E3E8FEE080E090E021913D
:102CA0003191232BB1F4FC01EE0FFF1FED57F14FD3
:102CB0002BEE38E03183208383589F4F9093F008A8
:102CC0008093EF088FE69AE09093F2088093F108E2
:102CD00004C001968931910511F78AE090E00E94C5
:102CE000741EEC016FE67AE0AED9D0936E0AC09301
:102CF0006D0AE5EBFEE080E090E021913191232B1D
:102D000081F4FC01EE0FFF1FEB54F14F2DE13FE08A
:102D1000318320838C599F4F9093200F80931F0FF6
:102D200004C001968931910541F78091F10E81111E
:102D300004C08FE69AE035DDF8CF80EE96E09F93F1
:102D40008F938091A5088F938091A4088F930E9400
:102D5000CF0C0F900F900F900F90DF91CF910895AF
:102D60002F923F924F925F926F927F928F929F929B
:102D7000AF92BF92CF92DF92EF92FF920F931F9389
:102D8000CF93DF93CDB7DEB7C25CD1400FB6F894D6
:102D9000DEBF0FBECDBF8FE69AE003DD8FE69AE07F
:102DA0001CDA20937C0830937D0840937E08509372
:102DB0007F086093800870938108809382089093C5
:102DC000830800916D0A10916E0AD8016D917C9173
:102DD000882777FD8095982F0E94EE224B015C0199
:102DE0006093940870939508809396089093970841
:102DF000F80162817381882777FD8095982F0E9462
:102E0000EE226B017C01609390087093910880938F
:102E1000920890939308D80114968D919D910D90EE
:102E2000BC91A02DC554DE4F88839983AA83BB83B0
:102E3000CB5BD14080938C0890938D08A0938E0833
:102E4000B0938F0820917C0830917D0840917E08D6
:102E500050917F0860E07AEC8AE99BE30E946C2144
:102E60002B013C018091880890918908A0918A08E3
:102E7000B0918B08481A590A6A0A7B0A8091800827
:102E800090918108A0918208B0918308480E591E44
:102E90006A1E7B1E20918408309185084091860827
:102EA0005091870860E07AEC8AE99BE30E946C21EC
:102EB000461A570A680A790AC301B2010E94EC2235
:102EC00028E23BE64EE65EE40E945322CD54DE4FFC
:102ED000688379838A839B83C35BD1402091980860
:102EE0003091990840919A0850919B08CA01B90104
:102EF000C154DE4F2883CF5BD140C054DE4F3883AE
:102F0000C05CD140CF53DE4F4883C15CD140CE532B
:102F1000DE4F5883C25CD1400E945022C155DE4F23
:102F2000688379838A839B83CF5AD140C154DE4F13
:102F30002881CF5BD140C054DE4F3881C05CD14086
:102F4000CF53DE4F4881C15CD140CE53DE4F588114
:102F5000C25CD140CA01B9010E943E24C954DE4F6F
:102F6000688379838A839B83C75BD140CD54DE4FCE
:102F7000288139814A815B81C35BD140C554DE4FD2
:102F8000688179818A819B81CB5BD1400E94DB2360
:102F90002B013C01C155DE4F288139814A815B817B
:102FA000CF5AD140C501B4010E94DB23C554DE4F86
:102FB000688379838A839B83CB5BD140C954DE4F7E
:102FC000288139814A815B81C75BD140C701B60145
:102FD0000E94DB239B01AC01C554DE4F68817981DF
:102FE0008A819B81CB5BD1400E94E721CD54DE4F8B
:102FF000288139814A815B81C35BD1400E94DB23F8
:103000009B01AC016091A0087091A1088091A20879
:103010009091A3080E94E8216093A0087093A108F2
:103020008093A2089093A308C954DE4F2881398168
:103030004A815B81C75BD140C501B4010E94DB239B
:103040004B015C01C155DE4F288139814A815B818A
:10305000CF5AD140C701B6010E94DB239B01AC01CE
:10306000C501B4010E94E821CD54DE4F2881398189
:103070004A815B81C35BD1400E94DB239B01AC0191
:1030800060919C0870919D0880919E0890919F0886
:103090000E94E82160939C0870939D0880939E088D
:1030A00090939F08409298085092990860929A08CD
:1030B00070929B0820E030E040E05FE3C301B20182
:1030C0000E94DB236B017C010E945022C155DE4F20
:1030D000688379838A839B83CF5AD140C701B60125
:1030E0000E943E24C954DE4F688379838A839B8380
:1030F000C75BD14020E030E0A901C155DE4F6881B7
:1031000079818A819B81CF5AD1400E94DB236B0158
:103110007C0120E030E0A901C954DE4F688179814B
:103120008A819B81C75BD1400E94DB23CD54DE4F57
:10313000688379838A839B83C35BD1409B01AC0105
:10314000C701B6010E94E7212B013C01CD54DE4F9F
:10315000288139814A815B81C35BD140C701B601B7
:103160000E94E8214B015C01A7019601C954DE4F82
:10317000688179818A819B81C75BD1400E94E72168
:103180006B017C01CD54DE4F288139814A815B81FE
:10319000C35BD140C155DE4F688179818A819B81B3
:1031A000CF5AD1400E94E821CD54DE4F6883798305
:1031B0008A839B83C35BD140A3019201C301B20107
:1031C0000E94DB23C155DE4F688379838A839B830A
:1031D000CF5AD140A5019401C501B4010E94DB235F
:1031E0009B01AC01C155DE4F688179818A819B8149
:1031F000CF5AD1400E94E821C155DE4F68837983C0
:103200008A839B83CF5AD140A7019601C701B6019B
:103210000E94DB239B01AC01C155DE4F688179819F
:103220008A819B81CF5AD1400E94E821C155DE4F4F
:10323000688379838A839B83CF5AD140CD54DE4FF4
:10324000288139814A815B81C35BD140CA01B901C0
:103250000E94DB239B01AC01C155DE4F688179815F
:103260008A819B81CF5AD1400E94E821C155DE4F0F
:10327000688379838A839B83CF5AD14020E030E0F2
:1032800040E85FE30E94E7219F772DEC3CEC4CEC9B
:103290005DE30E94D72318160CF075C04CEE56E083
:1032A00061E08FE69AE00E945011C155DE4F6881BF
:1032B00079818A819B81CF5AD1400E944824C1558F
:1032C000DE4F688379838A839B83CF5AD14020E085
:1032D00030E0A9010E944C22882309F445C0C15561
:1032E000DE4F288139814A815B81CF5AD140C301A9
:1032F000B2010E9453222B013C01C155DE4F2881AF
:1033000039814A815B81CF5AD140C501B4010E9405
:1033100053224B015C01C155DE4F288139814A811E
:103320005B81CF5AD140C701B6010E9453226B0185
:103330007C01C155DE4F288139814A815B81CF5A9A
:10334000D140CD54DE4F688179818A819B81C35BF6
:10335000D1400E945322CD54DE4F688379838A8303
:103360009B83C35BD1400FC0C12CD12C7601460199
:10337000570126013701CD54DE4FC882D982EA8237
:10338000FB82C35BD140CE0187589E4F0E94330F12
:1033900088E0ECE7F8E0A9E7B1E0AC0FBD1F1896B4
:1033A00001900D928A95E1F70AE117E0C757DE4FC9
:1033B00019830883C958D1408FE1282E87E0382E21
:1033C000C557DE4F39822882CB58D1408091A00862
:1033D0009091A108A091A208B091A308CF56DE4F0A
:1033E00088839983AA83BB83C159D14080919C086B
:1033F00090919D08A0919E08B0919F08CB56DE4FFA
:1034000088839983AA83BB83C559D140C756DE4FB1
:10341000188219821A821B82C959D140C156DE4FC7
:10342000488259826A827B82CF59D140CD55DE4F86
:1034300088829982AA82BB82C35AD140C955DE4F85
:10344000C882D982EA82FB82C75AD140CD54DE4F6E
:1034500088819981AA81BB81C35BD140C555DE4F6C
:1034600088839983AA83BB83CB5AD140CE0101962E
:103470000E94770F8091780890917908A0917A083E
:10348000B0917B08AC01BD014F5F5F4F6F4F7F4F25
:10349000409378085093790860937A0870937B087A
:1034A0008D839E83AF83B88788E0ECE7F8E0DE0188
:1034B000199601900D928A95E1F71A8B098B8091EC
:1034C000A0089091A108A091A208B091A3088B8FA9
:1034D0009C8FAD8FBE8F80919C0890919D08A0918C
:1034E0009E08B0919F088F8F98A3A9A3BAA31BA28F
:1034F0001CA21DA21EA249A65AA66BA67CA68DA63A
:103500009EA6AFA6B8AAC9AADAAAEBAAFCAACD546D
:10351000DE4F88819981AA81BB81C35BD1408DAB8D
:103520009EABAFABB8AF3C8A2B8A80919408909148
:103530009508A0919608B0919708C153DF4F8883F2
:103540009983AA83BB83CF5CD040809190089091EF
:103550009108A0919208B0919308CD52DF4F8883D3
:103560009983AA83BB83C35DD040C952DF4F1882C1
:1035700019821A821B82C75DD04080918C0890917D
:103580008D08A0918E08B0918F08C352DF4F8883B9
:103590009983AA83BB83CD5DD040CF51DF4F888311
:1035A0009983AA83BB83C15ED040CB51DF4F888310
:1035B0009983AA83BB83C55ED040FE01F996DE01E4
:1035C000A751BF4FCE0187539F4F11921192119275
:1035D00011921D921D921D921D92E817F907A9F7ED
:1035E000BE016F5F7F4F8BEE98E00E94BD0C809113
:1035F0006D0A90916E0A0E94F50D88E0ECE7F8E004
:10360000A4E8B8E001900D928A95E1F7CE53DE4F21
:103610000FB6F894DEBF0FBECDBFDF91CF911F91E3
:103620000F91FF90EF90DF90CF90BF90AF909F9061
:103630008F907F906F905F904F903F902F90089564
:10364000CF93DF9383EF97E090931E0F80931D0F2E
:1036500081ED97E09093240F8093230F85EC97E002
:103660009093260F8093250F1092270F1092280F0A
:103670001092290F10922A0F10922B0F10922C0FDC
:1036800010922D0F10922E0F10922F0F1092300FBC
:103690001092310F1092320F9093340F8093330FAA
:1036A0001092350F1092360F1092370F1092380F7C
:1036B0001092390F10923A0F10923B0F10923C0F5C
:1036C00010923D0F10923E0F10923F0F1092400F3C
:1036D00089E09DE09093420F8093410F81E090E05C
:1036E0009093440F8093430F89E297E09093220FC9
:1036F0008093210F1092180F1092170F10921A0F2B
:103700001092190F10921C0F10921B0F1092160F8F
:103710001092150F8FE69AE00E94891085EF98E0CD
:103720000E94770F8AE197E09093EC088093EB0872
:1037300085EF98E09093EE088093ED081092F408DE
:103740001092F308C6EAD8E083E298E09983888370
:103750001092A80889EA98E00E94330F1092E008BE
:103760001092DF088AE397E09093E2088093E108E3
:10377000D093E408C093E3081092EA081092E90895
:10378000109284081092850810928608109287087B
:10379000109288081092890810928A0810928B085B
:1037A00010927C0810927D0810927E0810927F087B
:1037B000109280081092810810928208109283085B
:1037C000DF91CF91089585E19FE00C940510FC01F5
:1037D000818D228D90E0805C9F4F821B91098F73B9
:1037E00099270895FC01918D828D981731F0828D73
:1037F000E80FF11D858D90E008958FEF9FEF0895FC
:10380000FC01918D828D981761F0828DDF01A80FE8
:10381000B11D5D968C91928D9F5F9F73928F90E00A
:1038200008958FEF9FEF089585EB9DE1892B39F087
:1038300080E090E0892B19F098D1811125C080E0BB
:1038400090E0892B41F080E090E0892B21F00E94EC
:10385000000081111CC080E090E0892B41F080E0E5
:1038600090E0892B21F00E940000811113C080E0BC
:1038700090E0892BA1F080E090E0892B81F00E94FC
:10388000000081110AC008950E940000D8CF0E9454
:103890000000E1CF0E940000EACF0C9400000895E0
:1038A000FC01848DDF01A80FB11DA35ABF4F2C91DD
:1038B000848D90E001968F739927848FA689B789AC
:1038C0002C93A089B1898C9180648C93938D848D85
:1038D000981306C00288F389E02D80818F7D808354
:1038E0000895CF93DF93EC01888D8823C1F0EA8996
:1038F000FB89808185FD05C0A889B9898C9186FDE9
:103900000EC00FB607FCF5CF808185FFF2CFA889E6
:10391000B9898C9185FFEDCFCE01C2DFE8CFDF9171
:10392000CF910895CF92DF92FF920F931F93CF9381
:10393000DF931F92CDB7DEB76C01DC015B969C91E3
:103940005B975C968C915C97981307C05096ED91AD
:10395000FC915197808185FD31C0F601038D10E007
:103960000F5F1F4F0F731127F02EF601848DF81291
:1039700010C00FB607FCF9CFD6015096ED91FC911F
:103980005197808185FFF1CFC601698389DF698105
:10399000ECCF838DE80FF11DE35AFF4F6083D60112
:1039A0005B960C935B975296ED91FC9153978081B7
:1039B0008062808381E058968C930DC0D601569624
:1039C000ED91FC91579760835096ED91FC91519742
:1039D00080818064808381E090E00F90DF91CF91BF
:1039E0001F910F91FF90DF90CF900895BF92CF92DB
:1039F000DF92EF92FF92CF93DF93EC016A017B019C
:103A0000B22EE889F98982E08083411581EE58075A
:103A10006105710599F060E079E08DE390E0A70120
:103A200096017CD421503109410951095695479599
:103A300037952795211580E1380790F0E889F989B5
:103A4000108260E874E88EE190E0A701960166D4E8
:103A500021503109410951095695479537952795C8
:103A6000EC85FD853083EE85FF852083188EEC89FB
:103A7000FD89B082EA89FB89808180618083EA893F
:103A8000FB89808188608083EA89FB8980818068E6
:103A90008083EA89FB8980818F7D8083DF91CF914C
:103AA000FF90EF90DF90CF90BF9008951F920F92FC
:103AB0000FB60F9211240BB60F922F938F939F93F3
:103AC000EF93FF93E091550FF091560F8081E091B5
:103AD0005B0FF0915C0F82FD12C0908180915E0FB0
:103AE0008F5F8F7320915F0F821751F0E0915E0F0F
:103AF000F0E0EB5BF04F958F80935E0F01C080810B
:103B0000FF91EF919F918F912F910F900BBE0F908E
:103B10000FBE0F901F9018951F920F920FB60F9225
:103B200011240BB60F922F933F934F935F936F9394
:103B30007F938F939F93AF93BF93EF93FF9385E40E
:103B40009FE0AEDEFF91EF91BF91AF919F918F917A
:103B50007F916F915F914F913F912F910F900BBE8D
:103B60000F900FBE0F901F90189585E49FE02FDEF9
:103B700021E0892B09F420E0822F08951092480F4C
:103B80001092470F88EE93E0A0E0B0E08093490FD9
:103B900090934A0FA0934B0FB0934C0F8BE698E095
:103BA0009093460F8093450F85EC90E09093520FD1
:103BB0008093510F84EC90E09093540F8093530FB7
:103BC00080EC90E09093560F8093550F81EC90E03D
:103BD0009093580F8093570F82EC90E090935A0F78
:103BE0008093590F86EC90E090935C0F80935B0F6D
:103BF00010925E0F10925F0F1092600F1092610F83
:103C00000895CF92DF92EF92FF920F931F93CF937D
:103C1000DF936C017A01EB01E60EF71E00E010E085
:103C2000CE15DF0561F06991D601ED91FC9101900F
:103C3000F081E02DC6011995080F191FF1CFC801B9
:103C4000DF91CF911F910F91FF90EF90DF90CF9078
:103C500008956115710581F0DB010D900020E9F7F1
:103C6000AD0141505109461B570BDC01ED91FC9110
:103C70000280F381E02D199480E090E00895DC014A
:103C8000ED91FC910190F081E02D19940F931F9319
:103C9000CF93DF93EC016DE0F2DF8C016AE0CE019F
:103CA000EEDF800F911FDF91CF911F910F9108954B
:103CB0000F931F93CF93DF93EC01CBDF8C01CE01E9
:103CC000E5DF800F911FDF91CF911F910F91089534
:103CD0000895AAD0FDDF0E94C715C4E1DCE140D8F9
:103CE0002097E9F3A1DDFBCF5CC6F3C61F920F92CC
:103CF0000FB60F9211242F933F938F939F93AF93FF
:103D0000BF938091E30F9091E40FA091E50FB091E4
:103D1000E60F3091E20F23E0230F2D3720F40196B8
:103D2000A11DB11D05C026E8230F0296A11DB11DDE
:103D30002093E20F8093E30F9093E40FA093E50F9D
:103D4000B093E60F8091E70F9091E80FA091E90FF3
:103D5000B091EA0F0196A11DB11D8093E70F9093DA
:103D6000E80FA093E90FB093EA0FBF91AF919F9135
:103D70008F913F912F910F900FBE0F901F9018952C
:103D80002FB7F8946091E30F7091E40F8091E50FE5
:103D90009091E60F2FBF08953FB7F8948091E70FF9
:103DA0009091E80FA091E90FB091EA0F26B5A89B7A
:103DB00005C02F3F19F00196A11DB11D3FBF662719
:103DC000782F892F9A2F620F711D811D911D42E05E
:103DD000660F771F881F991F4A95D1F70895CF92D4
:103DE000DF92EF92FF92CF93DF936B017C01D4DFE0
:103DF000EB01C114D104E104F10479F0FBD1CCDF73
:103E00006C1B7D0B683E7340A0F381E0C81AD1089B
:103E1000E108F108C851DC4FECCFDF91CF91FF9062
:103E2000EF90DF90CF900895789484B5826084BD40
:103E300084B5816084BD85B5826085BD85B58160AE
:103E400085BDEEE6F0E0808181608083E1E8F0E00E
:103E50001082808182608083808181608083E0E83D
:103E6000F0E0808181608083E1EBF0E0808184601C
:103E70008083E0EBF0E0808181608083E1E9F0E025
:103E8000808182608083808181608083E0E9F0E0CE
:103E9000808181608083E1EAF0E0808182608083BC
:103EA000808181608083E0EAF0E0808181608083AE
:103EB000E1E2F1E0808182608083808181608083A3
:103EC000E0E2F1E0808181608083EAE7F0E08081D8
:103ED0008460808380818260808380818160808330
:103EE0008081806880831092C10008951F93CF93D2
:103EF000DF93182FEB0161E00FD1209711F460E000
:103F000004C0CF3FD10531F461E0812FDF91CF9123
:103F10001F913BC1E12FF0E0E65BFE4F449150E082
:103F2000FA013197E231F10508F09AC0EE58FF4FDF
:103F300017C284B5806884BDC7BD97C084B5806250
:103F400084BDC8BD92C0809180008068809380004D
:103F5000D0938900C093880088C0809180008062DF
:103F600080938000D0938B00C0938A007EC08091A4
:103F70008000886080938000D0938D00C0938C0077
:103F800074C08091B00080688093B000C093B3008B
:103F90006CC08091B00080628093B000C093B40088
:103FA00064C080919000806880939000D0939900C5
:103FB000C09398005AC080919000806280939000D6
:103FC000D0939B00C0939A0050C08091900088606D
:103FD00080939000D0939D00C0939C0046C0809138
:103FE000A00080688093A0008091A0008F7B8093C8
:103FF000A000D093A900C093A80037C08091A00072
:1040000080628093A000D093AB00C093AA002DC023
:104010008091A00088608093A000D093AD00C093F1
:10402000AC0023C080912001806880932001D09350
:104030002901C093280119C08091200180628093DA
:104040002001D0932B01C0932A010FC08091200141
:10405000886080932001D0932D01C0932C0105C06E
:10406000C038D1050CF050CF4ACFDF91CF911F91CE
:10407000089590E0FC013197E231F10508F04BC062
:10408000EC57FF4F6DC1809180008F7703C0809106
:1040900080008F7D80938000089580918000877FCD
:1040A000F9CF84B58F7702C084B58F7D84BD089524
:1040B0008091B0008F7703C08091B0008F7D809396
:1040C000B0000895809190008F7707C08091900094
:1040D0008F7D03C080919000877F8093900008952A
:1040E0008091A0008F7707C08091A0008F7D03C0D2
:1040F0008091A000877F8093A00008958091200187
:104100008F7707C0809120018F7D03C080912001AF
:10411000877F809320010895CF93DF9390E0FC0187
:10412000E057FE4F2491FC01EA52FE4F8491882310
:1041300049F190E0880F991FFC01EA5CFD4FA591C1
:10414000B491845E9D4FFC01C591D4919FB76111DC
:1041500008C0F8948C91209582238C9388818223C7
:104160000AC0623051F4F8948C91322F3095832339
:104170008C938881822B888304C0F8948C91822B45
:104180008C939FBFDF91CF9108950F931F93CF938F
:10419000DF931F92CDB7DEB7282F30E0F901E65B41
:1041A000FE4F8491F901E057FE4F1491F901EA5254
:1041B000FE4F04910023C1F0882319F0698359DF71
:1041C0006981E02FF0E0EE0FFF1FE45EFD4FA59147
:1041D000B4919FB7F8948C91611103C0109581231D
:1041E00001C0812B8C939FBF0F90DF91CF911F91C6
:1041F0000F9108950895CF92DF92EF92FF920F935F
:104200001F93CF93DF938C01EB01688179818A81C1
:104210009B8120E03AEC4AE95BE380D0F801C08062
:10422000D180E280F380C20ED31EE41EF51EC08250
:10423000D182E282F382688379838A839B83DF91D0
:10424000CF911F910F91FF90EF90DF90CF90089545
:104250002FB7F8948091EB0F9091EC0F909325017C
:10426000809324012FBF0895109221011092200104
:1042700010922201613A27EF720723E0820791052D
:1042800068F423E02093ED0FDC01CB0132E0B6951A
:10429000A795979587953A95D1F70CC024E0209380
:1042A000ED0FDC01CB0124E0B695A7959795879596
:1042B0002A95D1F766277727681B790B7093EC0F47
:1042C0006093EB0FC5DF1ABA81E080937300809191
:1042D000ED0F809321010895DB018F939F9346D0CA
:1042E000BF91AF91A29F800D911DA39F900DB29F92
:1042F000900D1124089597FB072E16F4009406D014
:1043000077FD08D041D007FC05D03EF4909581950B
:104310009F4F0895709561957F4F0895A1E21A2EE1
:10432000AA1BBB1BFD010DC0AA1FBB1FEE1FFF1F59
:10433000A217B307E407F50720F0A21BB30BE40BA9
:10434000F50B661F771F881F991F1A9469F76095F0
:104350007095809590959B01AC01BD01CF010895AA
:10436000EE0FFF1F0590F491E02D199421D0A59F29
:10437000900DB49F900DA49F800D911D1124089560
:104380000790F691E02D1994AA1BBB1B51E107C0C1
:10439000AA1FBB1FA617B70710F0A61BB70B881FD5
:1043A000991F5A95A9F780959095BC01CD01089564
:1043B000A29FB001B39FC001A39F700D811D112466
:1043C000911DB29F700D811D1124911D08955058AB
:1043D000BB27AA270ED0A0C169D130F06ED120F042
:1043E00031F49F3F11F41EF45EC10EF4E095E7FB3B
:1043F00054C1E92FB3D180F3BA176207730784075A
:10440000950718F071F49EF5CBC10EF4E0950B2ED4
:10441000BA2FA02D0B01B90190010C01CA01A00116
:104420001124FF27591B99F0593F50F4503E68F171
:104430001A16F040A22F232F342F4427585FF3CFB2
:10444000469537952795A795F0405395C9F77EF483
:104450001F16BA0B620B730B840BBAF09150A1F0CC
:10446000FF0FBB1F661F771F881FC2F70EC0BA0F52
:10447000621F731F841F48F4879577956795B795DA
:10448000F7959E3F08F0B3CF9395880F08F09927D2
:10449000EE0F979587950895DCD008F481E0089594
:1044A00014D1E3954AC10CD037C107D140F0FED0FA
:1044B00030F021F45F3F19F0F0C0511172C1F3C028
:1044C0004DD198F39923C9F35523B1F3951B550B9F
:1044D000BB27AA2762177307840738F09F5F5F4FD7
:1044E000220F331F441FAA1FA9F333D00E2E3AF018
:1044F000E0E830D091505040E695001CCAF729D032
:10450000FE2F27D0660F771F881FBB1F2617370780
:104510004807AB07B0E809F0BB0B802DBF01FF27B0
:1045200093585F4F2AF09E3F510568F0B6C039C1DD
:104530005F3FECF3983EDCF3869577956795B795EA
:10454000F7959F5FC9F7880F911D9695879597F905
:104550000895E1E0660F771F881FBB1F621773077E
:104560008407BA0720F0621B730B840BBA0BEE1F93
:1045700088F7E095089504D06894B11112C10895A8
:10458000F5D088F09F5790F0B92F9927B751A0F038
:10459000D1F0660F771F881F991F1AF0BA95C9F7D7
:1045A00012C0B13081F0FCD0B1E00895F9C0672F9E
:1045B000782F8827B85F39F0B93FCCF38695779587
:1045C0006795B395D9F73EF4909580957095619570
:1045D0007F4F8F4F9F4F0895E89409C097FB3EF49B
:1045E00090958095709561957F4F8F4F9F4F992340
:1045F000A9F0F92F96E9BB279395F69587957795BE
:104600006795B795F111F8CFFAF4BB0F11F460FF7D
:104610001BC06F5F7F4F8F4F9F4F16C0882311F0D5
:1046200096E911C0772321F09EE8872F762F05C0E9
:10463000662371F096E8862F70E060E02AF09A9584
:10464000660F771F881FDAF7880F9695879597F979
:104650000895990F0008550FAA0BE0E8FEEF161613
:104660001706E807F907C0F012161306E407F50766
:1046700098F0621B730B840B950B39F40A2661F0DA
:10468000232B242B252B21F408950A2609F4A1407D
:10469000A6958FEF811D811D089597F99F6780E88A
:1046A00070E060E008959FEF80EC089500240A9484
:1046B0001616170618060906089500240A941216FD
:1046C0001306140605060895EECF50D0E8F3E894DB
:1046D000E0E0BB279F57F0F02AED3FE049EC06C031
:1046E000EE0FBB0F661F771F881F28F0B23A6207D4
:1046F0007307840728F0B25A620B730B840BE3959F
:104700009A9572F7803830F49A95BB0F661F771F21
:10471000881FD2F79048FCC0092E0394000C11F4B6
:10472000882352F0BB0F40F4BF2B11F460FF04C08C
:104730006F5F7F4F8F4F9F4F0895EF93E0FF06C04D
:10474000A2EA2AED3FE049EC5FEB53DEE5DF0F9094
:10475000039401FC9058ECE2F1E0EDC057FD905855
:10476000440F551F59F05F3F71F04795880F97FB35
:10477000991F61F09F3F79F08795089512161306EF
:104780001406551FF2CF4695F1DF08C0161617061E
:104790001806991FF1CF8695710561050894089553
:1047A000E894BB2766277727CB0197F9089551DF57
:1047B00008F48FEF08950BD0AFCF78DF28F07DDFBE
:1047C00018F0952309F069CF6ECF1124EACFC6DF28
:1047D000A0F3959FD1F3950F50E0551F629FF00114
:1047E000729FBB27F00DB11D639FAA27F00DB11D6D
:1047F000AA1F649F6627B00DA11D661F829F2227F6
:10480000B00DA11D621F739FB00DA11D621F839F7C
:10481000A00D611D221F749F3327A00D611D231F52
:10482000849F600D211D822F762F6A2F11249F57A0
:1048300050408AF0E1F088234AF0EE0FFF1FBB1FC3
:10484000661F771F881F91505040A9F79E3F510562
:1048500070F023CFA6CF5F3FECF3983EDCF3869554
:1048600077956795B795F795E7959F5FC1F7FE2B0D
:10487000880F911D9695879597F908959F9325DF49
:104880000F9007FCEE5F59CF11F40EF40CCF3EC031
:104890006DDFD0F39923D9F3CEF39F57550B87FFE4
:1048A00043D00024A0E640EA9001805856959795A1
:1048B00028F4805C660F771F881F20F026173707C3
:1048C000480730F4621B730B840B202931294A2BD3
:1048D000A69517940794202531254A2758F7660F87
:1048E000771F881F20F026173707480730F4620B20
:1048F000730B840B200D311D411DA09581F7B9016B
:10490000842F9158880F9695879508959F3F31F091
:10491000915020F4879577956795B795880F911DED
:104920009695879597F9089591505040660F771F97
:10493000881FD2F708959F938F937F936F93FF9370
:10494000EF939B01AC0137DFEF91FF9105D02F91E1
:104950003F914F915F912FCFDF93CF931F930F9391
:10496000FF92EF92DF927B018C01689405C0DA2EF2
:10497000EF012DDFFE01E894A59125913591459138
:104980005591AEF3EF0135DDFE019701A801DA94F0
:1049900079F7DF90EF90FF900F911F91CF91DF910A
:1049A0000895CF93DF938230910510F482E090E078
:1049B000E091F00FF091F10F20E030E0A0E0B0E0E6
:1049C000309739F14081518148175907B8F048179D
:1049D000590771F482819381109729F013969C9363
:1049E0008E9312972CC09093F10F8093F00F27C0F5
:1049F0002115310531F04217530718F0A901DB01E9
:104A000001C0EF019A01BD01DF010280F381E02DB9
:104A1000D7CF21153105F9F0281B390B243031058A
:104A200080F48A819B816115710521F0FB019383DC
:104A3000828304C09093F10F8093F00FFE013296B1
:104A400044C0FE01E20FF31F81939193225031097C
:104A5000398328833AC02091EE0F3091EF0F232B3A
:104A600041F420910202309103023093EF0F209322
:104A7000EE0F20910002309101022115310541F421
:104A80002DB73EB74091040250910502241B350B0F
:104A9000E091EE0FF091EF0FE217F307A0F42E1B59
:104AA0003F0B2817390778F0AC014E5F5F4F241792
:104AB000350748F04E0F5F1F5093EF0F4093EE0FF6
:104AC0008193919302C0E0E0F0E0CF01DF91CF91BC
:104AD0000895CF93DF93009709F487C0FC013297C4
:104AE00013821282C091F00FD091F10F209781F4C0
:104AF00020813181280F391F8091EE0F9091EF0FA7
:104B00008217930779F5F093EF0FE093EE0F6DC0E6
:104B1000DE0120E030E0AE17BF0750F412964D9151
:104B20005C9113979D014115510509F1DA01F3CF0D
:104B3000B383A28340815181840F951F8A179B07FD
:104B400071F48D919C911197840F951F029691831A
:104B5000808312968D919C91139793838283211564
:104B6000310529F4F093F10FE093F00F3EC0D90125
:104B70001396FC93EE9312974D915D91A40FB51F80
:104B8000EA17FB0779F480819181840F951F0296C3
:104B9000D90111969C938E938281938113969C9355
:104BA0008E931297E0E0F0E08A819B81009719F0E4
:104BB000FE01EC01F9CFCE01029628813981820FE6
:104BC000931F2091EE0F3091EF0F2817390769F4EA
:104BD000309729F41092F10F1092F00F02C0138257
:104BE0001282D093EF0FC093EE0FDF91CF91089513
:104BF0006F927F928F929F92AF92BF92CF92DF92ED
:104C0000EF92FF920F931F93CF93DF93EC01CB01B1
:104C1000209779F4DF91CF911F910F91FF90EF9042
:104C2000DF90CF90BF90AF909F908F907F906F90CC
:104C3000B8CEFE01E60FF71F9E0122503109E217A0
:104C4000F30708F4A8C0D9010D911C91119706171C
:104C50001707B0F00530110508F49BC0A8014450B7
:104C600051094617570708F494C002501109061B52
:104C7000170B019311936D937C93CF012ADF89C0A9
:104C80005B01A01AB10A4E01800E911EA091F00F97
:104C9000B091F10F612C712C60E070E0109709F475
:104CA00049C0A815B905C9F5ED90FC9011976701A9
:104CB00042E0C40ED11CCA14DB0478F147018A1803
:104CC0009B08640142E0C40ED11C1296BC9012975E
:104CD0001396AC91B5E0CB16D10440F0B282A38319
:104CE00091828082D9018D939C9309C00E5F1F4FE2
:104CF0000E0D1F1DF90111830083EB2DFA2F611595
:104D0000710531F0DB011396FC93EE93129741C0CD
:104D1000F093F10FE093F00F3CC06D917C911197EF
:104D20006616770608F43B01BD0112960D90BC9102
:104D3000A02DB4CF6091EE0F7091EF0F681579053B
:104D4000E9F468167906D0F440910002509101020E
:104D50004115510541F44DB75EB760910402709161
:104D60000502461B570BE417F507A8F4F093EF0F65
:104D7000E093EE0FF901918380830BC012DE7C017A
:104D8000009749F0A801BE0117D0CE01A2DEC701ED
:104D900004C0CE0102C080E090E0DF91CF911F916E
:104DA0000F91FF90EF90DF90CF90BF90AF909F90CA
:104DB0008F907F906F900895FB01DC0102C00190FD
:104DC0000D9241505040D8F708950F931F93CF9301
:104DD000DF93CDB7DEB72E970FB6F894DEBF0FBEC8
:104DE000CDBF8C01CA0146E04C831A83098377FF4B
:104DF00002C060E070E8615071097E836D83A90193
:104E0000BC01CE01019619D04D815E8157FD0AC0CB
:104E10002F813885421753070CF49A01F801E20FED
:104E2000F31F10822E960FB6F894DEBF0FBECDBFD3
:104E3000DF91CF911F910F9108952F923F924F9242
:104E40005F926F927F928F929F92AF92BF92CF921A
:104E5000DF92EF92FF920F931F93CF93DF93CDB723
:104E6000DEB72C970FB6F894DEBF0FBECDBF7C0126
:104E70006B018A01FC0117821682838181FFB0C118
:104E8000CE0101964C01F7019381F60193FD8591C6
:104E900093FF81916F01882309F49EC1853239F413
:104EA00093FD859193FF81916F01853221F4B701C4
:104EB00090E0C7D1E8CF512C312C20E02032A0F473
:104EC0008B3269F030F4803259F0833269F420611A
:104ED0002CC08D3239F0803339F4216026C0226035
:104EE000246023C0286021C027FD27C030ED380F83
:104EF0003A3078F426FF06C0FAE05F9E300D1124A8
:104F0000532E13C08AE0389E300D1124332E2062B8
:104F10000CC08E3221F426FD5FC1206406C08C36A1
:104F200011F4206802C0883641F4F60193FD8591A2
:104F300093FF81916F018111C1CF982F9F7D95546F
:104F4000933028F40C5F1F4FFFE3F9830DC08336C5
:104F500031F0833771F0833509F057C021C0F80173
:104F6000808189830E5F1F4F44244394512C540148
:104F700014C03801F2E06F0E711CF801A080B180FE
:104F800026FF03C0652D70E002C06FEF7FEFC50103
:104F90002C874CD12C0183012C852F77222E16C013
:104FA0003801F2E06F0E711CF801A080B18026FF7D
:104FB00003C0652D70E002C06FEF7FEFC5012C8745
:104FC0002AD12C012C852068222E830123FC19C0B4
:104FD000832D90E048165906A0F4B70180E290E0D6
:104FE00030D13A94F5CFF50127FC859127FE8191C8
:104FF0005F01B70190E025D131103A94F1E04F1AEA
:1050000051084114510479F7DEC0843611F0893615
:1050100031F5F80127FF07C060817181828193819A
:105020000C5F1F4F08C060817181882777FD8095D4
:10503000982F0E5F1F4F2F76B22E97FF09C09095C5
:105040008095709561957F4F8F4F9F4F2068B22E4E
:105050002AE030E0A40127D1A82EA81843C0853744
:1050600029F42F7EB22E2AE030E025C0F22FF97FFE
:10507000BF2E8F36C1F018F4883579F0ADC0803777
:1050800019F0883721F0A8C02F2F2061B22EB4FE6E
:105090000DC08B2D8460B82E09C024FF0AC09F2F3D
:1050A0009660B92E06C028E030E005C020E130E06F
:1050B00002C020E132E0F801B7FE07C060817181D3
:1050C000828193810C5F1F4F06C06081718180E0F7
:1050D00090E00E5F1F4FA401E6D0A82EA818FB2D6C
:1050E000FF77BF2EB6FE0BC02B2D2E7FA51450F4DC
:1050F000B4FE0AC0B2FC08C02B2D2E7E05C07A2C4F
:105100002B2D03C07A2C01C0752C24FF0DC0FE018D
:10511000EA0DF11D8081803311F4297E09C022FF40
:1051200006C07394739404C0822F867809F0739438
:1051300023FD12C020FF06C05A2C731418F4530C20
:105140005718732C731460F4B70180E290E02C8739
:1051500078D073942C85F6CF731410F4371801C0EF
:10516000312C24FF11C0B70180E390E02C8769D077
:105170002C8522FF16C021FF03C088E590E002C005
:1051800088E790E0B7010CC0822F867851F021FDAE
:1051900002C080E201C08BE227FD8DE2B70190E002
:1051A00050D0A51430F4B70180E390E04AD05A946F
:1051B000F8CFAA94F401EA0DF11D8081B70190E0C7
:1051C00040D0A110F6CF332009F45DCEB70180E2C4
:1051D00090E037D03A94F7CFF7018681978102C0EB
:1051E0008FEF9FEF2C960FB6F894DEBF0FBECDBFAA
:1051F000DF91CF911F910F91FF90EF90DF90CF90B3
:10520000BF90AF909F908F907F906F905F904F90E6
:105210003F902F900895FC0105906150704001105F
:10522000D8F7809590958E0F9F1F0895FC016150CF
:10523000704001900110D8F7809590958E0F9F1FB8
:1052400008950F931F93CF93DF93182F092FEB012E
:105250008B8181FD03C08FEF9FEF20C082FF10C0C4
:105260004E815F812C813D81421753077CF4E88198
:10527000F9819F012F5F3F4F39832883108306C038
:10528000E885F985812F1995892B29F72E813F8192
:105290002F5F3F4F3F832E83812F902FDF91CF9140
:1052A0001F910F910895FA01AA27283051F120315A
:1052B00081F1E8946F936E7F6E5F7F4F8F4F9F4FAA
:1052C000AF4FB1E03ED0B4E03CD0670F781F891FEC
:1052D0009A1FA11D680F791F8A1F911DA11D6A0FBA
:1052E000711D811D911DA11D20D009F468943F916D
:1052F0002AE0269F11243019305D3193DEF6CF016C
:105300000895462F4770405D4193B3E00FD0C9F731
:10531000F6CF462F4F70405D4A3318F0495D31FD9E
:105320004052419302D0A9F7EACFB4E0A6959795F1
:10533000879577956795BA95C9F7009761057105C7
:1053400008959B01AC010A2E069457954795379511
:105350002795BA95C9F7620F731F841F951FA01D6B
:10536000089512E0C4E5D2E000E005C022970109EB
:10537000FE010BBF05D8C635D10780E00807B1F79D
:04538000F894FFCFCF
:105384000000F20F20003E0746074F075907640745
:105394007374645F6D7367732F54696D6500636420
:1053A40037313636633734633535326333313166FA
:1053B400626363326665356137626332383900721D
:1053C4006F7373657269616C5F6D7367732F546F6C
:1053D400706963496E666F003061643531663838D0
:1053E40066633434383932663863313036383430B1
:1053F400373736343630303500726F7373657269FF
:10540400616C5F6D7367732F4C6F6700313161623C
:10541400643733316332353933333236316364368A
:1054240031383362643132643632393500396630AA
:1054340065393862646136353938313938366464EF
:1054440066353361666137613430653439006765C8
:105454006F6D657472795F6D7367732F51756174C5
:1054640065726E696F6E0061373739383739666136
:1054740064663031363037333466393036623863F7
:10548400313963373030340067656F6D6574727914
:105494005F6D7367732F566563746F723300346185
:1054A40038343262363566343133303834646332FA
:1054B400623130666234383465613766313700678B
:1054C400656F6D657472795F6D7367732F54776957
:1054D400737400396631393566383831323436669A
:1054E4006466613237393864316433656562636197
:1054F400383461007374645F6D7367732F5374720F
:10550400696E67003939326365386131363837631B
:10551400656338633862643838336563373363618D
:1055240034316431007374645F6D7367732F48653D
:105534006164657200323137366465636165636244
:10554400636537386162633362393665663034398E
:1055540066616265640067656F6D657472795F6D1D
:105564007367732F5472616E73666F726D0061633B
:1055740039656666343461626637313432313431C8
:1055840031326230356435346133636639620067C1
:10559400656F6D657472795F6D7367732F54726193
:1055A4006E73666F726D5374616D706564006235FD
:1055B400373634613333626665623335383866654D
:1055C40062633236383238353235373962300074F6
:1055D400662F74664D6573736167650039343831BD
:1055E40030656464613538336135303464666461D0
:1055F4003338323965373064376565630067656F02
:105604006D657472795F6D7367732F506F696E7413
:105614000067656F6D657472795F6D7367732F5082
:105624006F736500653435643435613561316365A4
:105634003539376232343965323366623330666302
:10564400383731660067656F6D657472795F6D73A5
:1056540067732F506F736557697468436F7661720F
:1056640069616E636500633233653834386366316B
:105674006237353333613864376332353930373321
:105684006139376536660067656F6D657472795F79
:105694006D7367732F547769737457697468436FB4
:1056A40076617269616E63650031666538613238AE
:1056B4006536383930613463633361653463336329
:1056C400613563376438326536006E61765F6D73B9
:1056D40067732F4F646F6D65747279006364356509
:1056E4003733643139306437343161326639326585
:1056F400383165646135373361636137005155452D
:1057040055453A20696E73756666696369656E749A
:10571400206D656D6F727920746F2063726561749A
:10572400652061206E6577206E6F64652E004920C8
:105734006865617264206C696E6561723A205B25EC
:10574400642C2025642C2025645D2C20616E6775F3
:105754006C61723A205B25642C2025642C2025641E
:105764005D00494E56414C494420545749535420F6
:10577400434F4D4D414E440051554555453A2063E4
:10578400616E277420706F70206974656D20667275
:105794006F6D2071756575653A2071756575652045
:1057A400697320656D7074792E004D6F746F72206B
:1057B40072756E20636F6D6D616E643A202573009F
:1057C400526967687420636C6F636B7769736520D3
:1057D400617420256400526967687420616E74697D
:1057E400636C6F636B776973652061742025640053
:1057F4004C65667420636C6F636B776973652061B5
:1058040074202564004C65667420616E7469636C51
:105814006F636B77697365206174202564004D653F
:1058240073736167652066726F6D20646576696362
:10583400652064726F707065643A206D657373617E
:105844006765206C6172676572207468616E20629E
:1058540075666665722E006D6F746F724C6F6700AB
:1058640053544152542055502E2E2E005446207429
:105874006F204D53473A205175617465726E696F9C
:105884006E204E6F742050726F7065726C79204E6A
:105894006F726D616C697A6564006F646F6D00622C
:1058A4006173655F6C696E6B002F747572746C65DF
:1058B400312F636D645F76656C002F746600464F0C
:1058C4005257415244004241434B57415244004CC9
:1058D4004546545F5455524E0052494748545F540C
:1058E40055524E0053544F5000726F737365726972
:1058F400616C5F6D7367732F526571756573745056
:105904006172616D00000000005D017F01C501C886
:1059140001000000005504CB01A302A60200000010
:1059240000DD04A902ED02F00200000000090530C8
:1059340006F302F6020000000036088F0AF902FCA2
:1059440002000000006E08BF0AFF0202030000000C
:10595400009B08E60A0503080300000000B1050BDC
:105964000347034A03000000007211D113460400E8
:10597400000000000B4B044F04520400000000D848
:10598400054D03DA03DD0300000000B508120BE047
:1059940003E30300000000CF082C0BE603E9030037
:1059A400000000EC03860B22042504000000001113
:1059B40009D00B28042B04000000003E09F70B2E2D
:1059C400043104000000005809110C3404370400A9
:1059D40000000085093B0C3A043D0400000000B2BD
:1059E40009650C4004430400000000921C011EE7FA
:0859F4001B001CF21B711C00DA
:00000001FF
